S01000006D786C39303631342E73726563BF
S1130000EEC0000004C1000002C1000000C10000F5
S1130010FEC00000FCC00000FAC00000F8C00000F0
S1130020F6C00000F4C00000F2C00000F0C0000000
S1130030EEC00000ECC00000EAC00000E8C0000010
S1130040E6C00000E4C00000E2C00000E0C0000020
S1130050DEC00000DCC00000DAC00000D8C0000030
S1130060D6C00000D4C00000D2C00000D0C0000040
S1130070CEC00000CCC00000CAC00000C8C0000050
S1130080C6C00000C4C00000C2C00000C0C0000060
S1130090BEC00000BCC00000BAC00000B8C0000070
S11300A0B6C00000B4C00000B2C00000B0C0000080
S11300B0AEC00000ACC00000AAC00000A8C0000090
S11300C0A6C00000A4C00000A2C00000A0C00000A0
S11300D09EC000009CC000009AC0000098C00000B0
S11300E096C0000000407A10F35A00A0724E18091E
S11300F00010A5D4E80000E87648170000E40B548B
S1130100020000CA9A3B000000E1F5050000809659
S11301109800000040420F000000A086010000008B
S1130120102700000000E803000000006400000045
S113013000000A00000000000100000000002C760E
S1130140D888DC674F0823DFC1DFAE59E1B1B79629
S1130150E5E3E453C63AE651997696E8E6C2842686
S1130160EB898C9B62ED407C6FFCEFBC9C9F40F262
S1130170BAA56FA5F490055A2AF75C936B6CF967DE
S11301806DC11BFCE0E40D47FEF520E6B500D0EDA3
S1130190902E0300943577050080841E080000200B
S11301A04E0A000000C80C333333330F986E1283A9
S11301B01141EF8D2114893BE65516CFFEE6DB187D
S11301C0D1844B381BF77C1D901DA4BBE424203242
S11301D084725E228100C9F124ECA1E53D2711243B
S11301E01FBECFEFD1E2DEBFCDBF00E00CBF12E0F7
S11301F0A0E0B2E0EEE2F3E100E00BBF02C0079042
S11302000D92AC38B107D9F720D10C949509F8CEEA
S113021084E08093BC00E9EBF0E080818C7F8083F4
S113022088E48093B800089584EA8093BC008091A8
S1130230BC008823E4F78091B900887F883041F0BE
S11302408091B900887F803131F480E090E0089596
S113025080E090E008958FEF9FEF089584E9809304
S1130260BC0008958093BB0084E88093BC00809117
S1130270BC008823E4F78091B900887F883141F07D
S11302808091B900887F883231F480E090E008954D
S113029080E090E008958FEF9FEF0895FC0194ECC7
S11302A09093BC009091BC009923E4F79091B9001D
S11302B0987F903531F48091BB00808380E090E09A
S11302C008958FEF9FEF0895FC0194E89093BC008C
S11302D09091BC009923E4F79091B900987F9835E8
S11302E031F48091BB00808380E090E008958FEF2B
S11302F09FEF0895CF92DF92EF92FF920F931F9397
S1130300CF93DF931F921F92CDB7DEB7F82E8B01E8
S11303108BDF99230CF458C084EBA4DF99230CF4ED
S113032056C08F2D9FDF99230CF454C07DDF992391
S11303300CF453C085EB96DF99230CF451C0CE0125
S11303400196ACDF99230CF44EC0CE010296BCDFBB
S113035099230CF44BC082DF6A8170E0762F662704
S11303608981682B072E000C880B990B7FD12AE01A
S113037037ED43EA5CE32ED223E333E948E853E460
S11303800AD16B017C01F8016083718382839383BA
S113039023E333E948E853EC63D188234CF020E0AD
S11303A030E04AE754E4C701B60110D218160CF540
S11303B080E090ECA9E7B4ECF80180839183A283F8
S11303C0B3838FEF9FEF17C08FEF9FEF14C08FEFB2
S11303D09FEF11C08FEF9FEF0EC08FEF9FEF0BC009
S11303E08FEF9FEF08C08FEF9FEF05C08FEF9FEF58
S11303F002C080E090E00F900F90DF91CF911F91A9
S11304000F91FF90EF90DF90CF9008951092C50068
S113041087E68093C40088E18093C10086E08093DE
S1130420C20008959091C00095FFFCCF8093C60050
S11304300895CF93DF93EC0102C02196F3DF888106
S11304408111FBCFDF91CF910895CF93DF93CDB787
S1130450DEB7EA970FB6F894DEBF0FBECDBFD8DE85
S1130460D5DFBE016F5F7F4F87E044DF99236CF4D3
S113047080E092E0DEDF2FEF89E698E121508040B2
S11304809040E1F700C00000ECCFBE016B5F7F4FEE
S113049086E030DF99236CF484E292E0CADF2FEF28
S11304A089E698E1215080409040E1F700C00000C7
S11304B0D8CFC980DA80EB80FC8020E030EC49E7BB
S11304C054ECC701B601CCD0882309F457C06D8120
S11304D07E818F81988520E030EC49E754ECC0D0D0
S11304E0882309F44BC05E0129E0A20EB11C8501EA
S11304F022E046E0C701B601D0D18C818F938B8175
S11305008F938A818F9389818F9388E492E09F935C
S11305108F93BF92AF92E0D1C5018BDF8FEF93ED44
S113052020E3815090402040E1F700C000006D813D
S11305307E818F81988522E046E0AFD188858F93B4
S11305408F818F938E818F938D818F938AE592E033
S11305509F938F93BF92AF92BFD1C5016ADF8FEF94
S113056099E628E1815090402040E1F700C0000066
S11305700FB6F894DEBF0FBECDBF73CF8CE692E00A
S113058058DF9FEF29E688E1915020408040E1F751
S113059000C0000066CF5058BB27AA270ED0DCC08D
S11305A0CDD030F0D2D020F031F49F3F11F41EF4BE
S11305B0C2C00EF4E095E7FBB8C0E92FDED080F3AB
S11305C0BA17620773078407950718F071F49EF54C
S11305D0F6C00EF4E0950B2EBA2FA02D0B01B90135
S11305E090010C01CA01A0011124FF27591B99F0A5
S11305F0593F50F4503E68F11A16F040A22F232FB1
S1130600342F4427585FF3CF469537952795A79500
S1130610F0405395C9F77EF41F16BA0B620B730BA7
S1130620840BBAF09150A1F0FF0FBB1F661F771F18
S1130630881FC2F70EC0BA0F621F731F841F48F4CD
S1130640879577956795B795F7959E3F08F0B3CF53
S11306509395880F08F09927EE0F9795879508953D
S113066040D008F481E00895E89409C097FB3EF473
S113067090958095709561957F4F8F4F9F4F9923EB
S1130680A9F0F92F96E9BB279395F6958795779569
S11306906795B795F111F8CFFAF4BB0F11F460FF29
S11306A01BC06F5F7F4F8F4F9F4F16C0882311F081
S11306B096E911C0772321F09EE8872F762F05C095
S11306C0662371F096E8862F70E060E02AF09A9530
S11306D0660F771F881FDAF7880F9695879597F925
S11306E00895990F0008550FAA0BE0E8FEEF1616BF
S11306F01706E807F907C0F012161306E407F50712
S113070098F0621B730B840B950B39F40A2661F085
S1130710232B242B252B21F408950A2609F4A14028
S1130720A6958FEF811D811D089597F99F6780E835
S113073070E060E008959FEF80EC089500240A942F
S11307401616170618060906089500240A941216A8
S11307501306140605060895092E0394000C11F4DB
S1130760882352F0BB0F40F4BF2B11F460FF04C088
S11307706F5F7F4F8F4F9F4F089557FD9058440FE1
S1130780551F59F05F3F71F04795880F97FB991FEC
S113079061F09F3F79F087950895121613061406A9
S11307A0551FF2CF4695F1DF08C016161706180636
S11307B0991FF1CF86957105610508940895E89411
S11307C0BB2766277727CB0197F908958ADF08F4BA
S11307D08FEF08950BD0C0CFB1DF28F0B6DF18F04B
S11307E0952309F0A2CFA7CF1124EACFC6DFA0F347
S11307F0959FD1F3950F50E0551F629FF001729FB2
S1130800BB27F00DB11D639FAA27F00DB11DAA1FD0
S1130810649F6627B00DA11D661F829F2227B00D1D
S1130820A11D621F739FB00DA11D621F839FA00DA8
S1130830611D221F749F3327A00D611D231F849FF8
S1130840600D211D822F762F6A2F11249F5750404F
S11308508AF0E1F088234AF0EE0FFF1FBB1F661FEA
S1130860771F881F91505040A9F79E3F510570F0A3
S11308705CCFA6CF5F3FECF3983EDCF3869577958B
S11308806795B795F795E7959F5FC1F7FE2B880F9E
S1130890911D9695879597F90895EF920F931F935D
S11308A0CF93DF93E80147FD02C034E001C034E197
S11308B0042E000C550B57FF03C051954195510967
S11308C0E32E022F242FAE0132D2CE01DF91CF913D
S11308D01F910F91EF9008950F931F93CF93DF9380
S11308E0CDB7DEB72E970FB6F894DEBF0FBECDBFDF
S11308F00E891F8986E08C831A8309838FEF9FE713
S11309009E838D83AE01465E5F4F688D798DCE01E7
S1130910019610D0EF81F885E00FF11F10822E961A
S11309200FB6F894DEBF0FBECDBFDF91CF911F91FC
S11309300F9108952F923F924F925F926F927F9200
S11309408F929F92AF92BF92CF92DF92EF92FF92DB
S11309500F931F93CF93DF93CDB7DEB72B970FB6CB
S1130960F894DEBF0FBECDBF6C017B018A01FC0190
S113097017821682838181FFBFC1CE0101963C019B
S1130980F6019381F70193FD859193FF81917F0196
S1130990882309F4ADC1853239F493FD859193FF21
S11309A081917F01853221F4B60190E024D4E8CF0F
S11309B0912C212C312CFFE1F315D8F08B3279F0F6
S11309C038F4803279F08332A1F4232D20611DC0E4
S11309D08D3261F0803369F4232D216016C0832D9C
S11309E08260382EE32DE4603E2E2AC0F32DF86099
S11309F01DC037FC2DC020ED280F2A3040F08E3268
S1130A00B9F436FC75C1232D2064322E19C036FE8C
S1130A1006C08AE0989E200D1124922E11C0EAE0AF
S1130A202E9E200D1124222EF32DF0623F2E08C09D
S1130A308C3621F4832D8068382E02C0883641F428
S1130A40F70193FD859193FF81917F018111B3CFCC
S1130A50982F9F7D9554933028F40C5F1F4F9FE38C
S1130A6099830DC0833631F0833771F0833509F0F3
S1130A7055C020C0F801808189830E5F1F4F8824F0
S1130A808394912C530112C02801F2E04F0E511CA3
S1130A90F801A080B18036FE03C0692D70E002C069
S1130AA06FEF7FEFC5019CD34C018201F32DFF77DB
S1130AB03F2E15C0280122E0420E511CF801A080EF
S1130AC0B18036FE03C0692D70E002C06FEF7FEF86
S1130AD0C5017BD34C01F32DF0683F2E820133FC1A
S1130AE019C0822D90E088169906A0F4B60180E220
S1130AF090E081D32A94F5CFF50137FC859137FE38
S1130B0081915F01B60190E076D321102A9421E00F
S1130B10821A91088114910479F7E1C0843611F0A6
S1130B20893639F5F80137FE07C060817181828109
S1130B3093810C5F1F4F08C060817181072E000CE8
S1130B40880B990B0E5F1F4FF32DFF763F2E97FFF7
S1130B5009C090958095709561957F4F8F4F9F4FF9
S1130B60F0683F2E2AE030E0A30181D3882E861856
S1130B7044C0853731F4232D2F7EB22E2AE030E095
S1130B8025C0932D997FB92E8F36C1F018F488357E
S1130B9079F0AEC0803719F0883721F0A9C0E92F69
S1130BA0E061BE2EB4FE0DC0FB2DF460BF2E09C063
S1130BB034FE0AC0292F2660B22E06C028E030E099
S1130BC005C020E130E002C020E132E0F801B7FEC8
S1130BD007C060817181828193810C5F1F4F06C0C1
S1130BE06081718180E090E00E5F1F4FA3013FD3CD
S1130BF0882E8618FB2DFF773F2E36FE0DC0232D41
S1130C002E7FA22E891458F434FE0BC032FC09C086
S1130C10832D8E7EA82E05C0B82CA32C03C0B82C1F
S1130C2001C0B92CA4FE0FC0FE01E80DF11D8081A6
S1130C30803321F49A2D997EA92E09C0A2FE06C004
S1130C40B394B39404C08A2D867809F0B394A3FCBA
S1130C5010C0A0FE06C0B21480F4280C922C9B187D
S1130C600DC0B21458F4B60180E290E0C4D2B3943B
S1130C70F8CFB21418F42B1802C0982C212CA4FE1F
S1130C800FC0B60180E390E0B6D2A2FE16C0A1FC6C
S1130C9003C088E790E002C088E590E0B6010CC08C
S1130CA08A2D867851F0A1FE02C08BE201C080E259
S1130CB0A7FC8DE2B60190E09ED2891430F4B6010F
S1130CC080E390E098D29A94F8CF8A94F301E80DE7
S1130CD0F11D8081B60190E08ED28110F6CF2220E2
S1130CE009F44ECEB60180E290E085D22A94F7CF83
S1130CF0F6018681978102C08FEF9FEF2B960FB686
S1130D00F894DEBF0FBECDBFDF91CF911F910F913D
S1130D10FF90EF90DF90CF90BF90AF909F908F9017
S1130D207F906F905F904F903F902F9008958F9297
S1130D309F92AF92BF92CF92DF92EF92FF920F9366
S1130D401F93CF93DF93CDB7DEB729970FB6F894EF
S1130D50DEBF0FBECDBF6A01122FB02E2BE32017CA
S1130D6020F0FF24F394F00E02C02CE3F22E0F2D9A
S1130D7027E0AE014F5F5F4F50D1BC014981842F02
S1130D808970813031F0E1FC06C0E0FE06C090E2DB
S1130D9005C09DE203C09BE201C090E05E2D50714E
S1130DA043FF3CC0911102C083E001C084E081177D
S1130DB018F4212F281B01C020E051110BC0F601AB
S1130DC0822F30E2882319F031938150FBCFC20E79
S1130DD0D11C20E0992329F0D6019C93F601319689
S1130DE06F01C6010396E2FE0AC03EE4D6013C93BD
S1130DF041E411964C93119712963C9306C03EE63B
S1130E00F601308341E641833283FC01322F40E214
S1130E10332309F442C041933150FACF42FF44C016
S1130E20911102C083E001C084E0811718F4212FDE
S1130E30281B01C020E051110BC0F601822F30E2C3
S1130E40882319F031938150FBCFC20ED11C20E0CE
S1130E50992329F0D6019C93F60131966F01C601BE
S1130E600396E2FE0BC039E4D6013C933EE41196AE
S1130E703C93119736E412963C9307C039E6F60189
S1130E8030833EE6318336E63283FC01322F40E282
S1130E90332319F041933150FBCFFC01E20FF11DD4
S1130EA010828EEF9FEFA6C021E030E0911102C0C6
S1130EB020E030E0161617061CF4FB01319602C040
S1130EC0E1E0F0E02E0F3F1FBB2021F0EB2DF0E01E
S1130ED0319602C0E0E0F0E02E0F3F1FE12FF0E07A
S1130EE02E173F071CF4121B212F01C020E08E2D6A
S1130EF0887159F4F601822F30E2882319F0319376
S1130F008150FBCFC20ED11C20E0992329F0D601D9
S1130F109C93F60131966F0151110BC0F601822F9B
S1130F2090E3882319F091938150FBCFC20ED11C1A
S1130F3020E00F2D060F9A81342F307144FF03C037
S1130F40913309F40150101624F4093018F008E024
S1130F5001C001E0AB0177FF02C040E050E0FB01BB
S1130F60E41BF50BA1E0B0E0AC0FBD1FEA0FFB1FC3
S1130F708EE2A82E4B01801A91080B2D10E01195DA
S1130F80019511094F3FBFEF5B0721F4D601AC92E5
S1130F9011966D01641775072CF08416950614F4E8
S1130FA0818101C080E3415051093196D6011196E7
S1130FB07D014017510724F0D6018C936701E2CFDD
S1130FC06417750739F4963320F4953319F4311105
S1130FD001C081E3F6018083F701822F90E2882328
S1130FE019F091938150FBCFF701E20FF11D1082AC
S1130FF080E090E029960FB6F894DEBF0FBECDBF17
S1131000DF91CF911F910F91FF90EF90DF90CF90E0
S1131010BF90AF909F908F900895283008F027E0FC
S11310203327DA01990F311D87FD91600096610520
S1131030710539F432602E5F3D9330E32A95E1F770
S113104008959F3F30F080387105610509F03C5FD9
S11310503C5F3D93913008F08068911DDF93CF93FE
S11310601F930F93FF92EF92192F987F9695E92F74
S113107096959695E90FFF27E25CFE4F9927332753
S1131080EE24FF24A701E70105900894079428F4AF
S1131090360FE71EF81E491F511D660F771F881F64
S11310A0991F0694A1F70590079428F4E70EF81EFB
S11310B0491F561FC11D770F881F991F661F06946D
S11310C0A1F70590079428F4F80E491F561FC71F6F
S11310D0D11D880F991F661F771F0694A1F70590ED
S11310E0079420F4490F561FC71FD81F990F661F76
S11310F0771F881F0694A9F784911095177041F003
S1131100D695C79557954795F794E7941A95C1F7DF
S1131110E4EEF0E068941590159135916591959100
S113112005907FE27395E118F10A430B560BC90B46
S1131130D009C0F7E10CF11E431F561FC91FD01D73
S11311407EF4703311F48A95E6CFE894015030F0C0
S1131150080F0AF40027021708F4202F2395022F02
S11311607A3328F079E37D932A95E9F710C07D93CB
S11311702A9589F606949795679537951795179448
S1131180E118F10A430B560BC90BD00998F02395CB
S11311907E9173957A3308F070E37C932013B8F74B
S11311A07E9170617D9330F0839571E37D9370E35C
S11311B02A95E1F71124EF90FF900F911F91CF91A1
S11311C0DF91992787FD90950895FC010590615062
S11311D070400110D8F7809590958E0F9F1F089549
S11311E0FC016150704001900110D8F780959095F2
S11311F08E0F9F1F08950F931F93CF93DF93FB01CF
S1131200238121FD03C08FEF9FEF2CC022FF16C066
S113121046815781248135814217530744F4A081C4
S1131220B1819D012F5F3F4F318320838C932681B1
S113123037812F5F3F4F3783268314C08B01EC0126
S1131240FB010084F185E02D1995892BE1F6D80185
S113125016968D919C911797019617969C938E9351
S11312601697CE01DF91CF911F910F910895FA0146
S1131270AA27283051F1203181F1E8946F936E7FD1
S11312806E5F7F4F8F4F9F4FAF4FB1E03ED0B4E0C2
S11312903CD0670F781F891F9A1FA11D680F791F03
S11312A08A1F911DA11D6A0F711D811D911DA11D14
S11312B020D009F468943F912AE0269F1124301924
S11312C0305D3193DEF6CF010895462F4770405DBF
S11312D04193B3E00FD0C9F7F6CF462F4F70405D6E
S11312E04A3318F0495D31FD4052419302D0A9F7C9
S11312F0EACFB4E0A6959795879577956795BA95C3
S1131300C9F700976105710508959B01AC010A2E88
S113131006945795479537952795BA95C9F7620F5F
S1111320731F841F951FA01D0895F894FFCF1E
S113132E4572726F723A2053656E736F72206E6FD0
S113133E20656E636F6E747261646F20283078302E
S113134E37290A004572726F723A2053656E736FB5
S113135E72206E6F20656E636F6E747261646F209F
S113136E2830783036290A0054656D70204F626A31
S113137E3A20252E326620430A0054656D702041B2
S113138E6D623A20252E326620430A004572726F32
S113139E7220656E206C61206C65637475726120B9
S10F13AE64656C2073656E736F720A0036
S9030000FC
