S00B00004750532E737265632F
S113000071C000008EC000008CC000008AC00000D7
S113001088C0000086C0000084C0000082C00000C8
S113002080C000007EC000007CC000007AC00000D8
S113003078C0000076C0000074C0000072C00000E8
S113004070C000006EC000006CC000006AC00000F8
S113005068C0000066C0000064C0000062C0000008
S113006060C000005EC000005CC000005AC0000018
S113007058C0000056C0000054C0000052C0000028
S113008050C000004EC000004CC000004AC0000038
S113009048C0000046C0000044C0000042C0000048
S11300A040C000003EC000003CC000003AC0000058
S11300B038C0000036C0000034C0000032C0000068
S11300C030C000002EC000002CC000002AC0000078
S11300D028C0000026C0000051C0000022C000005B
S11300E020C0000011241FBECFEFD1E2DEBFCDBF80
S11300F000E00CBF12E0A0E0B2E0ECE0F2E000E0CF
S11301000BBF02C007900D92A430B107D9F722E0CB
S1130110A4E0B2E001C01D92A538B207E1F770D0A7
S113012073C06ECF87E690E09093C5008093C400BF
S113013088E98093C10086E08093C200089587E631
S113014090E0909335018093340188E980933101E4
S113015086E0809332010895FC0107C09091C000AD
S113016095FFFCCF31968093C60080818111F6CF34
S11301700895F2DF80E092E0EFCF08951F920F928E
S11301800FB60F9211240BB60F922F933F934F93F8
S11301905F936F937F938F939F93AF93BF93EF93EB
S11301A0FF93809136018A3021F0E0918402EF3789
S11301B060F0E0918402F0E0EC5FFD4F108284E097
S11301C092E0D7DF1092840208C091E09E0F9093D2
S11301D08402F0E0EC5FFD4F8083FF91EF91BF91CB
S11301E0AF919F918F917F916F915F914F913F91CB
S11301F02F910F900BBE0F900FBE0F901F9018956C
S10F02009EDF90DF7894FFCFF894FFCFCE
S107020C0D0A0000D3
S9030000FC
