S00F00004D4F544F5245532E73726563EC
S113000071C000008EC000008CC000008AC00000D7
S113001088C0000086C0000084C0000082C00000C8
S113002080C000007EC000007CC000007AC00000D8
S113003078C0000076C0000074C0000072C00000E8
S113004070C000006EC000006CC000006AC00000F8
S113005068C0000066C0000064C0000062C0000008
S113006060C00000CCC000005CC000005AC00000AA
S113007058C0000056C0000054C0000052C0000028
S113008050C000004EC000004CC000004AC0000038
S113009048C0000046C0000044C0000042C0000048
S11300A040C000003EC000003CC000003AC0000058
S11300B038C0000036C0000034C0000032C0000068
S11300C030C000002EC000002CC000002AC0000078
S11300D028C0000026C0000024C0000022C0000088
S11300E020C0000011241FBECFEFD1E2DEBFCDBF80
S11300F000E00CBF12E0A0E0B2E0E8E5F8E000E0C8
S11301000BBF02C007900D92A832B107D9F722E0C5
S1130110A8E2B2E001C01D92A236B207E1F76ED1A7
S113012099C36ECF85B18F7785B984B5836884BD53
S113013085B5856085BD81E187BD08951092C500B0
S113014087E68093C40088E98093C10086E08093A9
S1130150C200089588B1816088B988B18D7F88B95B
S1130160089588B1826088B988B18E7F88B908956E
S113017088B18C7F88B9089588B18C7F88B981E073
S1130180809328020895853608F084E690E09C0167
S1130190220F331F220F331F820F931F90932A02C3
S11301A08093290290938900809388000895E0E861
S11301B0F0E0808182608083A1E8B0E08C91886166
S11301C08C9384B1806884B98081806880838081C5
S11301D0806280838C9183608C9384EF91E0909310
S11301E08700809386001092850010928400089501
S11301F084B1806884B987B1836087B908951F92F8
S11302000F920FB60F9211240BB60F922F933F93B8
S11302104F935F936F937F938F939F93AF93BF930A
S1130220EF93FF932091C6002A3009F0C7C0809154
S11302305D0290915E029C0121503109F901E55D56
S1130240FD4F40814D3009F05BC0F901E55DFD4F84
S1130250108245E050E060E072E08BE292E0E4D28C
S1130260892BE1F480E392E0C2D280936102682F8B
S113027070E080E090E0CCD120E030E044E353E44F
S113028031D120E030E040ED51E44ED220E030E0C6
S113029048E851E4C3D08ED167BD9DC047E050E02B
S11302A066E072E08BE292E0BFD2892B11F452DF58
S11302B092C049E050E06EE072E08BE292E0B4D28A
S11302C0892B11F44EDF87C049E050E068E172E009
S11302D08BE292E0A9D2892B39F484E392E087D2AD
S11302E080935F0250DF77C044E050E062E272E046
S11302F08BE292E099D2892B09F06DC03DDF6BC08F
S1130300FC01E55DFD4F108210925E0210925D02C9
S113031045E050E060E072E08BE292E085D2892B08
S1130320E1F480E392E063D280936102682F70E08D
S113033080E090E06DD120E030E044E353E4D2D09B
S113034020E030E040ED51E4EFD120E030E048E837
S113035051E464D02FD167BD3EC047E050E066E071
S113036072E08BE292E060D2892B11F4F3DE33C0A9
S113037049E050E06EE072E08BE292E055D2892BC6
S113038011F4EFDE28C049E050E068E172E08BE24E
S113039092E04AD2892B39F484E392E028D2809304
S11303A05F02F1DE18C044E050E062E272E08BE2EA
S11303B092E03AD2892B79F4DBDE0DC080915D02A4
S11303C090915E02FC01E55DFD4F208301969093C0
S11303D05E0280935D02FF91EF91BF91AF919F9177
S11303E08F917F916F915F914F913F912F910F90DA
S11303F00BBE0F900FBE0F901F90189593DED7DEA3
S11304009DDEF6DE78942FEF83ED90E3215080405B
S11304109040E1F700C00000F6CF5058BB27AA2750
S11304200ED048C139D130F03ED120F031F49F3F95
S113043011F41EF42EC10EF4E095E7FB24C1E92F5C
S11304404AD180F3BA17620773078407950718F037
S113045071F49EF562C10EF4E0950B2EBA2FA02D17
S11304600B01B90190010C01CA01A0011124FF275D
S1130470591B99F0593F50F4503E68F11A16F04058
S1130480A22F232F342F4427585FF3CF4695379557
S11304902795A795F0405395C9F77EF41F16BA0B1C
S11304A0620B730B840BBAF09150A1F0FF0FBB1FCA
S11304B0661F771F881FC2F70EC0BA0F621F731F13
S11304C0841F48F4879577956795B795F7959E3F70
S11304D008F0B3CF9395880F08F09927EE0F9795FE
S11304E0879508950CD0E6C0DED040F0D5D030F02A
S11304F021F45F3F19F0C7C0511110C1CAC0EBD03D
S113050098F39923C9F35523B1F3951B550BBB27D6
S1130510AA2762177307840738F09F5F5F4F220F83
S1130520331F441FAA1FA9F333D00E2E3AF0E0E87C
S113053030D091505040E695001CCAF729D0FE2FC8
S113054027D0660F771F881FBB1F2617370748075A
S1130550AB07B0E809F0BB0B802DBF01FF27935810
S11305605F4F2AF09E3F510568F08DC0D7C05F3FB2
S1130570ECF3983EDCF3869577956795B795F795F8
S11305809F5FC9F7880F911D9695879597F90895F0
S1130590E1E0660F771F881FBB1F6217730784078C
S11305A0BA0720F0621B730B840BBA0BEE1F88F79B
S11305B0E095089598D088F09F5790F0B92F992727
S11305C0B751A0F0D1F0660F771F881F991F1AF05A
S11305D0BA95C9F712C0B13081F09FD0B1E0089547
S11305E09CC0672F782F8827B85F39F0B93FCCF3C8
S11305F0869577956795B395D9F73EF49095809550
S1130600709561957F4F8F4F9F4F0895E89409C06F
S113061097FB3EF490958095709561957F4F8F4F31
S11306209F4F9923A9F0F92F96E9BB279395F69547
S1130630879577956795B795F111F8CFFAF4BB0FC5
S113064011F460FF1BC06F5F7F4F8F4F9F4F16C029
S1130650882311F096E911C0772321F09EE8872FB3
S1130660762F05C0662371F096E8862F70E060E06F
S11306702AF09A95660F771F881FDAF7880F9695E8
S1130680879597F9089597F99F6780E870E060E08F
S113069008959FEF80EC089500240A941616170617
S11306A018060906089500240A941216130614065F
S11306B005060895092E0394000C11F4882352F0C2
S11306C0BB0F40F4BF2B11F460FF04C06F5F7F4F7A
S11306D08F4F9F4F089557FD9058440F551F59F061
S11306E05F3F71F04795880F97FB991F61F09F3F1B
S11306F079F087950895121613061406551FF2CF44
S11307004695F1DF08C0161617061806991FF1CF93
S113071086957105610508940895E894BB276627BA
S11307207727CB0197F908950BD0C4CFB5DF28F014
S1130730BADF18F0952309F0A6CFABCF1124EECF82
S1130740CADFA0F3959FD1F3950F50E0551F629F28
S1130750F001729FBB27F00DB11D639FAA27F00D16
S1130760B11DAA1F649F6627B00DA11D661F829F3D
S11307702227B00DA11D621F739FB00DA11D621F22
S1130780839FA00D611D221F749F3327A00D611D3F
S1130790231F849F600D211D822F762F6A2F112421
S11307A09F5750408AF0E1F088234AF0EE0FFF1F74
S11307B0BB1F661F771F881F91505040A9F79E3FAB
S11307C0510570F060CFAACF5F3FECF3983EDCF3A5
S11307D0869577956795B795F795E7959F5FC1F7E8
S11307E0FE2B880F911D9695879597F90895FC0126
S11307F088279927E89421912032E9F3293010F0D1
S11308002E30C8F32B3239F02D3231F4689403C002
S113081019D0820F911D219120532A30C8F31EF460
S1130820909581959F4F0895FB01DC014150504004
S113083030F08D910190801919F40020B9F7881BCC
S1130840990B08957AE0979F902D879F802D910DA5
S10B085011240895F894FFCF70
S1130858534552564F006465726563686100697A4E
S1130868717569657264610056454C4F434944414A
S10B087844007061726F00007E
S9030000FC
