S00D00006D6174727A2E73726563E9
S113000071C000008EC000008CC000008AC00000D7
S113001088C0000086C0000084C0000082C00000C8
S113002080C000007EC000007CC000007AC00000D8
S113003078C0000076C0000074C0000072C00000E8
S113004070C000006EC000006CC000006AC00000F8
S113005068C0000066C0000064C0000062C0000008
S113006060C000005FC000005CC000005AC0000017
S113007058C0000056C0000054C0000052C0000028
S113008050C000004EC000004CC000004AC0000038
S113009048C0000046C0000044C0000042C0000048
S11300A040C000003EC0000021C200003AC0000071
S11300B038C0000036C0000034C0000032C0000068
S11300C030C000002EC000002CC000002AC0000078
S11300D028C0000026C0000024C0000022C0000088
S11300E020C0000011241FBECFEFD1E2DEBFCDBF80
S11300F000E00CBF13E0A0E0B2E0EAE4F5E000E0C9
S11301000BBF02C007900D92A23EB107D9F724E0BD
S1130110A2EEB3E001C01D92AD36B207E1F70DD2F5
S113012012C26ECF1F920F920FB60F9211240BB60C
S11301300F928F939F93AF93BF93EF93FF9380910D
S1130140C600E091E303E11106C08093E203EF5F90
S1130150E093E3032AC09091E203933231F19432A5
S113016001F58B3371F4E23038F0F0E0E85FFB4FD7
S1130170108281E08093E4031092E3031092E2037F
S113018014C0E53648F4AE2FB0E0A85FBB4F8C93A3
S1130190EF5FE093E30309C01092E3031092E203DC
S11301A004C01092E3031092E203FF91EF91BF9118
S11301B0AF919F918F910F900BBE0F900FBE0F9038
S11301C01F90189584B1876084B981E58CBD08952A
S11301D08EBD0DB407FEFDCF0895CF93C62FF8DF73
S11301E08C2FF6DFCF910895CF9385B18E7F85B99B
S11301F0C0E004C06FE08AE0F0DFCF5FC430D0F32A
S113020085B1816085B985B18E7F85B9C0E004C0B0
S113021067E08BE0E2DFCF5FC430D0F385B181606B
S113022085B985B18E7F85B9C0E004C061E08CE0FA
S1130230D4DFCF5FC430D0F385B1816085B985B197
S11302408E7F85B9C0E004C060E08FE0C6DFCF5F79
S1130250C430D0F385B1816085B9CF9108950F93EF
S11302601F93CF93DF938C01D0E01CC085B18E7FA8
S113027085B9C0E011C0EC2FF0E0EE0FFF1FEE0FC8
S1130280FF1FEE0FFF1FED0FF11DE00FF11F608147
S113029081E08D0FA2DFCF5FC43068F385B1816048
S11302A085B9DF5FD83010F3DF91CF911F910F91A3
S11302B00895E1EAF0E0808188608083A2E7B0E0FD
S11302C08C9182608C9387EA91E69093A900809345
S11302D0A80080818360808308951092C50087E61A
S11302E08093C40088E98093C10086E08093C200B3
S11302F008958091E80390E0E9E0F4E001900020A3
S1130300E9F73197E950F4408E179F0708F43EC08F
S1130310809100028823D1F1809100028150809362
S1130320000260E02DC0E62FF0E0822F90E0AC01E7
S1130330440F551F440F551F440F551F4E0F5F1F89
S1130340DA01A751BC4F3C91330F3C93233090F416
S11303500196880F991F880F991F880F991FE80F1E
S1130360F91FE751FC4F8081882324F4FD0180812B
S1130370816080832F5F01C020E02430A0F26F5F92
S11303806830D0F389EE93E06ACF08958091E80352
S113039090E08E179F0740F01092E8031092E70355
S11303A080E2809300020895E091E803F0E0E75FC3
S11303B0FB4F8081803248F0E091E803F0E0E75F92
S11303C0FB4F808188230CF070C08091E8038F5F1D
S11303D08093E8031092E7030895E62FF0E0822F5C
S11303E090E0AC01440F551F440F551F440F551F97
S11303F04E0F5F1FDA01A751BC4F3C91330F3C9362
S1130400233090F40196880F991F880F991F880F45
S1130410991FE80FF91FE751FC4F8081882324F4CA
S1130420FD018081816080832F5F01C020E0243042
S1130430A0F28091E703853078F5E091E803F0E0DD
S1130440E75FFB4F808190E080972091E703FC01F8
S1130450EE0FFF1FEE0FFF1FE80FF91FEF5FFD4FB9
S1130460E20FF11D8081262F30E090E0062E02C0BD
S1130470959587950A94E2F780FF07C0F901EF5F2D
S1130480FB4F8081816080830EC0F901EF5FFB4FD9
S113049080818E7F808307C0E62FF0E0EF5FFB4F03
S11304A080818E7F80836F5F01C060E0683008F4D4
S11304B0BDCF89EE93E0D3DE8091E7038F5F809315
S11304C0E7038091E5039091E60301969093E60398
S11304D08093E5038091E703863038F01092E703B8
S11304E08091E8038F5F8093E80308951F920F9231
S11304F00FB60F9211240BB60F922F933F934F9385
S11305005F936F937F938F939F93AF93BF93EF9377
S1130510FF93EFDEFF91EF91BF91AF919F918F9188
S11305207F916F915F914F913F912F910F900BBEEF
S11305300F900FBE0F901F90189544DE55DEB9DE64
S10D0540CCDE7894FFCFF894FFCFCF
S113054A20000000000000005F0000000700070010
S113055A147F147F14242A7F2A1223130864623610
S113056A495522500005030000001C2241000041A5
S113057A221C0014083E081408083E0808005030DB
S113058A0000080808080800606000002010080439
S113059A023E5149453E00427F400042615149466C
S11305AA2141454B311814127F1027454545393CE2
S11305BA4A49493001710905033649494936064908
S11305CA49291E0036360000005636000008142257
S11305DA410014141414140041221408020151098C
S11305EA06324979413E7E1111117E7F49494936C5
S11305FA3E414141227F4141221C7F494949417F71
S113060A090909013E4149497A7F0808087F0041DE
S113061A7F41002040413F017F081422417F40402E
S113062A40407F0204027F7F0408107F3E4141411B
S113063A3E7F090909063E4151215E7F091929466F
S113064A464949493101017F01013F4040403F1F6A
S113065A2040201F3F4038403F63140814630708B2
S113066A7008076151494543007F4141000204086B
S113067A10200041417F000402010204808080802E
S113068A80000307000020545454787F44444438BB
S113069A3844444444384444447F38545454180431
S11306AA047E0505085454543C7F08080870000069
S11306BA7D0000408080807D7F1010284400007FE8
S11306CA00007C047804787C0804047838444444A0
S11306DA38FC1824241818242418FC7C0804040858
S11306EA085454542004043F44443C4040407C1C75
S11306FA2040201C3C4030403C44281028440448F4
S113070A3008044464544C44083641000000007F15
S113071A0000000041360808040810080000000020
S105072A0000C9
S9030000FC
